:020000040800F2
:1000000030060020AD010008F9210008F1210008A8
:10001000F5210008F5020008AD23000800000000EB
:1000200000000000000000000000000001220008A5
:100030008103000800000000FD21000805220008DF
:10004000C7010008C7010008C7010008C701000870
:10005000C7010008C701000885030008C7010008A0
:10006000C7010008C7010008C7010008C701000850
:10007000C7010008C7010008C7010008C701000840
:10008000C7010008C7010008C70100080000000000
:10009000000000000000000000000000C701000890
:1000A000C7010008C7010008C7010008C701000810
:1000B000C7010008C7010008C7010008C701000800
:1000C000C7010008C7010008C7010008C7010008F0
:1000D000C7010008C7010008C701000800000000B0
:1000E000C7010008C7010008C701000800000000A0
:1000F000000000000000000000000000C701000830
:1001000000000000C7010008C7010008C70100087F
:1001100000000000000000000000000000000000DF
:10012000F9020008C7010008C7010008C70100085C
:10013000C7010008000000000000000000000000EF
:10014000000000000000000000000000C7010008DF
:10015000C7010008C701000805030008C70100081F
:10016000C7010008C70100080000000000000000EF
:10017000000000000000000000000000000000007F
:1001800000000000C701000800000000000000009F
:10019000C7010008C7010008DFF80CD000F098F88C
:1001A00000480047B1230008300600200648804779
:1001B00006480047FEE7FEE7FEE7FEE7FEE7FEE74C
:1001C000FEE7FEE7FEE7FEE7B5220008990100081A
:1001D0002DE9F05F0546002092469B46884606467C
:1001E000814640241BE0284641464746224600F00F
:1001F0005EF853465A46C01A914110D3114618462C
:10020000224600F045F82D1A67EB01084F462246BA
:100210000120002100F03CF817EB00094E41201EA0
:10022000A4F10104DFDC484631462A464346BDE8D6
:10023000F09F40EA01039B0703D009E008C9121FA1
:1002400008C0042AFAD203E011F8013B00F8013B90
:10025000521EF9D27047421C10F8011B0029FBD135
:10026000801A704730B50B46014600202022012439
:1002700009E021FA02F59D4205D303FA02F5491B74
:1002800004FA02F52844151EA2F10102F1DC30BD8A
:10029000202A04DB203A00FA02F100207047914046
:1002A000C2F1200320FA03F3194390407047202A3B
:1002B00004DB203A21FA02F00021704721FA02F310
:1002C000D040C2F120029140084319467047000017
:1002D000064C074D06E0E06840F0010394E8070093
:1002E00098471034AC42F6D3FFF75AFF842E00082B
:1002F000A42E0008FEE7000040F29800C2F20000C1
:1003000000F022BB40F2F800C2F2000000F01CBB7B
:1003100070B540F2E814C2F20004206840F2100602
:100320004169C2F2000621F080014161728806F144
:100330000C050CA1284602F0DDFAB06082B220461E
:1003400029464FF0FF3301F013FE42F65851C0F634
:100350000001204624224FF0FF337160BDE8704059
:1003600001F006BE0A3E3E3E204144432076616CC9
:100370007565203D202564203C3C3C0D0A0A0000A8
:1003800070470000012000F017BD0000EFF310805F
:1003900072B600BFFEE7000070B581B00022009287
:1003A00090F83C20012A03D10221084601B070BD1B
:1003B0000E6801220A2E80F83C2009D3B2B2520006
:1003C000D0F800E012FA86F21E3A0EF10C0305E0B6
:1003D000D0F800E006EB46020EF110034FF0070CD8
:1003E0001D680CFA02F4A5431D608D681C6805FAAF
:1003F00002F222431A604968062905D801EB8101FF
:1004000005390EF1340309E00C2901EB810187BFA6
:1004100041390EF12C0323390EF130031F221C68E1
:100420008A4024EA020242F2043C1A60C4F2010C3F
:10043000B2B21C6802FA01F1ACF541722143964553
:10044000196005D0002180F83C10084601B070BD4D
:100450001221112EC1F2000118BF8E423AD1DCF8F0
:1004600000208E4222F48002CCF80020DCF800202C
:1004700042F40002CCF80020E4D140F20801C2F2BC
:10048000000109684DF68362C4F21B32A1FB02121F
:10049000910C01EB81014900009100990029D1D014
:1004A00000990139009100990029CBD000990139B8
:1004B000009100990029C5D0009901390091009957
:1004C0000029BFD000990139009100990029E7D196
:1004D000B8E700BF122EB5D1DCF8001021F40001FE
:1004E000CCF80010DCF8001041F48001CCF80010CA
:1004F000A8E700000068C06C70470000002804BF37
:100500000120704710B50446006C00283ED0206CD6
:10051000C00645D4206C41F202118843023042F2F9
:1005200004312064C4F20101086820F440300860FE
:100530000A6894E809101A43D4F810E00A60416888
:10054000012321F4807141604168C0F6007341EAE3
:100550000E214160416821F040714160416841EAEB
:100560000C014160816821F400618160E16882686A
:1005700011438160A16A8268994222F070628260B0
:10058000826813D122F0405119E000BF204600F0EC
:1005900065F80020606484F83C00206CC006B9D582
:1005A0000120002184F83C1010BD00BF1143816080
:1005B000816821F040518160E16A82681143816065
:1005C000816821F0020181608168227E94F82030E8
:1005D00041EA42018160416883B141F400614160B8
:1005E00041684EF2000221F460414160616ACFF639
:1005F000FF72436802EB4131194301E021F40061CD
:100600004160C16A40F2000C21F47001C162E269EC
:100610006169CFF6F07CC36A0CEB02521A43C262E6
:10062000826822F40072826094F83020836843EA82
:1006300042228260826822F480628260826842EA9A
:100640008121816000206064216C012262F301013C
:100650002164002184F83C1010BD000070B586B004
:10066000044642F200002168C4F2010000268142E3
:100670000596049602D006B070BD00BF43F6300167
:100680000096C4F202014A6900F5604042F48072AB
:100690004A614A6902F480720092009A00960A68E0
:1006A00042F001020A60096801F00101009100991D
:1006B000802101910321CDE9021601A900F088FBF8
:1006C00040F2980546F21040C2F20005C4F2020062
:1006D0004FF48061C5E9000605F110004FF4006297
:1006E0004FF400534FF4807C80E80E102846C5E993
:1006F0000266C5E9086600F007FA002818BFFFF790
:1007000045FEA563AC6306B070BD000070B504463D
:1007100000680D468268520544BF80685FEAC05099
:1007200038D400F041FC21680A68920749D4064693
:10073000681C3CD0DDB90868800721D508688007AF
:100740003FD4086880071BD50868800739D408683B
:10075000800715D50868800733D4086880070FD54F
:1007600008688007E7D52CE00868800729D400F0E6
:100770001BFC801B2168A842F6D908688007F3D4C7
:10078000206C40F004002064002084F83C0003202A
:1007900070BD00BF206C40F020002064002084F871
:1007A0003C00012070BD00BF0868800709D40868BC
:1007B000800706D4086880075CBF08685FEA80701D
:1007C000F2D56FF012000860206C40F400702064D5
:1007D000886810F0405F01D1207E08B1002070BD14
:1007E000C86A10F4700F02D088684005F6D4206CF7
:1007F00020F480702064206CC004EFD4206C40F0A2
:1008000001002064002070BD10B581B0002100916E
:1008100090F83C10012903D1022001B010BD00BFA7
:100820000468012180F83C10214651F8083FDB079D
:1008300029D10B684DF6836243F001030B6040F24F
:100840000803C2F200031B68C4F21B32A3FB02239D
:100850009A0C02EB42020092009AA2B1009A013A6D
:100860000092009A7AB1009A013A0092009A52B12D
:10087000009A013A0092009A2AB1009A013A009235
:10088000009A002AEAD10A68036CD2070AD143F021
:100890001001016400F1440101200A68104308605E
:1008A00034E000BF40F2017223EA020202F58072D6
:1008B00002646268520504D5026C012363F30D32B1
:1008C0000264026C4FF0000C0023D20444BF426C5F
:1008D00022F0060342F2000E436480F83CC06FF041
:1008E0002200C4F2010E2060DEF80403C00609D025
:1008F00074450BD1DEF8080010F0405F06D14FF0D0
:100900008040CAE7086810F0405FF8D0002001B0CE
:1009100010BD000090F83C10012904BF0220704770
:1009200001688A6822F001028A608968C90705D1D6
:10093000016C41F20112914301310164002180F800
:100940003C10084670470000F0B581B00446002016
:10095000009040F20800C2F200000268D4E916607C
:1009600048F2B51337680821C1F64E338140394249
:10097000A2FB03250CD0226813685B0708D5136817
:1009800023F004031360B160616D41F00101616502
:1009900001218140394208D022685269120604D5EB
:1009A000B160616D41F0020161650421814039420D
:1009B00008D022681268920704D5B160616D41F0D9
:1009C0000401616510218140394217D02068026816
:1009D000120713D5B16002680168520308D4C90533
:1009E00008D4016821F008010160216C21B905E0FB
:1009F00008033FD4216C09B120468847E16D2020CF
:100A000000FA01F23A4241D020680368DB063DD586
:100A1000B26094F835300268052B1BD122F0160223
:100A20000260426922F080024261226C0AB9A26C23
:100A30001AB1026822F0080202603F208840B060CC
:100A4000012084F83500216D0020002984F834004D
:100A500052D157E00168520310D4C90512D401687D
:100A600021F010010160012084F83500002084F895
:100A7000340007E0A16C0029BED1BFE7080301D410
:100A8000616C00E0E16B09B120468847606DC8B336
:100A9000606DC0072ED0052084F835002068A90AB3
:100AA000026822F001020260009A01328A4200923A
:100AB0001AD80268D20717D0009A01328A420092EF
:100AC00012D80268D2070FD0009A01328A420092EF
:100AD0000AD80268D20707D0009A01328A420092EF
:100AE00002D80268D207DFD1012084F83500002047
:100AF00084F83400E16C29B1204601B0BDE8F04033
:100B0000084700BF01B0F0BD2DE9F041044600F0F8
:100B10004BFA002C4ED00546022084F83500002008
:100B2000216884F83400086820F001000860086833
:100B3000C00708D000F038FA401B05286CD821689F
:100B40000868C007F6D1086848F23F02CFF21002E9
:100B5000D4E90135024004F10C0E9EE8C1511A435C
:100B60002A4310433043384340EA0800626A40EAAF
:100B70000C00042A40EA0E0320D1D4E90A5E206B5F
:100B80004EEA0302104308604869BEF1000F20F0EE
:100B9000030040EA050040F0040C15D0B8F5005FF2
:100BA00042D0B8F1000F51D1022D52D0012D47D0C3
:100BB00055B94EE00120BDE8F08100BF0B604869E7
:100BC00020F0070040EA020C6FF00F004AF6AB225B
:100BD00050FA81F0CAF6AA22A0FB02231A0942F6B3
:100BE000A043C0F600039A5C40F2FF335F284FF049
:100BF0003F00C1F814C021EA030100FA02F088BFE7
:100C00000431C4E9161288600023012200206365C4
:100C100084F83520BDE8F08103222023032063659A
:100C200084F83520BDE8F081032DCDD80122402382
:100C30000120DFE805F0030E030500BFE7E700BF72
:100C4000AEF1C070B0FA80F0400904E0032D04D387
:100C5000BAD1CEF300600028B6D001224023012093
:100C6000636584F83520BDE8F081000090F83430E9
:100C7000012B04BF0220704790F83530012B0BD1B7
:100C8000052922D8DFE801F0040E12161A1E00BF53
:100C900000F13C0118E000BF0121002280F834205F
:100CA0000846704700F140010EE000BF00F144012A
:100CB0000AE000BF00F1480106E000BF00F14C016E
:100CC00002E000BF00F150010A600021002280F81C
:100CD000342008467047000070B590F834C0BCF16D
:100CE000010F46D04FF0010C80F834C0D0F858E026
:100CF00090F835C0BCF1010F38D14FF0020C80F8EC
:100D000035C04FF0000CC0F854C0D0F800C0846863
:100D1000056CC06DDCF80060402C26F48026CCF811
:100D20000060CCF804300B4604BF13460A463F214E
:100D300001FA00F0CCF80830CCF80C20CEF808000E
:100D4000DCF8000040F01600CCF800002DB1DCF813
:100D5000000040F00800CCF80000DCF8000040F093
:100D60000100CCF80000002070BD00BF002180F819
:100D70003410022070BD0000B0B5044600F014F934
:100D8000054640F20000C2F200000078611C18BF66
:100D9000044400BF00F008F9401BA042FAD3B0BDE4
:100DA000012818BF704740F20040C4F202004FF41F
:100DB000806100F0EBB8000043F61441C4F2010179
:100DC0000A68024214BF08607047FFF7E9BF0000DD
:100DD0002DE9F04F82B000F13E4241F2000502F1F0
:100DE000FF77C4F2020507224FEAB726A84208BFE0
:100DF0000422042E38BF4FEAB7224FF0010E002420
:100E000000274FF00008009208E000BF023708F109
:100E10000108202F04F1040400F0B4800E680EFADB
:100E200008F916EA090FF1D0D1F804A00AF0030B73
:100E3000ABF10106012E19D80322866802FA07FEDB
:100E4000CA6826EA0E06BA40324382604268CAF394
:100E5000001522EA090205FA08F54FEA480C6FEA84
:100E60000E064FF0010E2A4342600BE00322BA4007
:100E7000D643BBF1030FBC4604D1BC464FF0030B75
:100E800024E000BFC2688D68324005FA0CF52A43A1
:100E9000BBF1020FC26019D16FF0030202EA5802DF
:100EA000024404F01C030F25D2F820E005FA03FAEF
:100EB0000D692EEA0A0E05FA03F343EA0E031362E4
:100EC000D1F804A04FF0010E0AF0030B02680BFAF0
:100ED0000CF332401A431AF4403F026096D00022CD
:100EE00043F644030192C4F202031A6843F6004C2D
:100EF00042F480421A601A68C4F2010C02F4804283
:100F00000192019A28F003024FF6084A6244CFF694
:100F1000FF7A52F80A3004F00C060F25B540AB43B7
:100F2000009D05FA06F6334342F80A30DCF800204B
:100F30004B6842EA0906DD0358BF22EA0906CCF8ED
:100F40000060DCF804209D0342EA090658BF22EA4B
:100F50000906CCF80460DCF80820DD0242EA090644
:100F600043F60C4558BF22EA0906CCF80860C4F2E3
:100F700001052A689B0242EA090658BF22EA0906CF
:100F80002E6043E702B0BDE8F08F0000426902EA3C
:100F90000103914341EA034181617047002A08BF80
:100FA000090481617047000040F22C20C2F2000069
:100FB0000068704740F2000040F22C21C2F20000AD
:100FC000C2F2000100780A6810440860704700000F
:100FD00080B543F60040C4F20200016841F400719C
:100FE0000160016841F480610160016841F4807131
:100FF0000160032000F084F8002000F005F800F004
:1010000027F8002080BD000070B540F20006C2F253
:10101000000640F208013278C2F200014FF47A7300
:101020000968B3FBF2F20446B1FBF2F1084600F0A6
:101030005BFB0F2C4FF0010508D838B94FF0FF309B
:1010400021460022002500F02FF87460284670BD6C
:1010500082B0002043F640010190C4F202014A68C8
:1010600042F480424A604A6802F480420192019A46
:101070000090086840F080500860086800F08050D8
:101080000090009802B07047002848BF704700F0F9
:101090001F01012202FA01F14EF200124009CEF2C4
:1010A000000242F82010704710B54EF60C5CCEF2EC
:1010B000000CDCF80030C3F3022E8EF00704042C81
:1010C00028BF0424BEF103034FF0FF3E0EFA04F4E0
:1010D00038BF0023A14399400EFA03F39A4311430A
:1010E00000F00F02043A624409010C3200F160433F
:1010F000B0F1FF3FC8BF03F56442117010BD00009E
:101100004EF60C51CEF200010A684FF6FF031A406A
:1011100060F30A2242F0806040F0FD700860704782
:101120004EF61050CEF200000268012922F00402AF
:1011300002600FBF30BF40BF20BF20BF704700001C
:101140002DE9F041002800F08B8043F60808C4F236
:1011500002080446D8F8F8030D4600F0070088425C
:1011600007D288F8F853D8F8F80300F00700A8422F
:1011700076D12068810717D5410705D5D8F800102A
:1011800041F4E051C8F80010010705D5D8F8001067
:1011900041F46041C8F80010D8F80010A26821F0AE
:1011A000F0011143C8F80010C0073FD1D8F8F80388
:1011B00000F00700A84207D988F8F853D8F8F803D8
:1011C00000F00700A8424BD12068410707D5D8F8A6
:1011D0000010E26821F4E0511143C8F80010000744
:1011E00008D5D8F80000216920F4604040EAC10029
:1011F000C8F8000000F07CF8D8F8001042F68842E9
:10120000C1F30311C0F60002515C40F2080220FA5B
:1012100001F140F20400C2F200000068C2F20002D4
:101220001160FFF7F1FE0020BDE8F0816068811ECB
:10123000022907D258F8081C89015CBF0120BDE8CB
:10124000F08111E0012807D158F8081C89035CBF20
:101250000120BDE8F08107E058F8081C890703D495
:101260000120BDE8F08100BFD8F8001021F0030193
:101270000843C8F80000FFF797FE064641F288379A
:10128000D8F80000616800F00C00B0EB810F8DD041
:10129000FFF78AFE801BB842F2D90320BDE8F08137
:1012A00040F2080043F60801C2F20000C4F2020155
:1012B0000068096842F69842C1F38221C0F6000234
:1012C000515CC8407047000040F2080043F6080136
:1012D000C2F20000C4F202010068096842F69842B6
:1012E000C1F34231C0F60002515CC84070470000B3
:1012F00010B543F60404C4F20204606800F00C0068
:1013000008280BD0042819BF42F20040C0F2F400B4
:1013100047F64000C0F27D1010BD00BF2068216874
:101320002368490247F64001C0F27D1100F03F02F8
:10133000C3F388105CBF42F20041C0F2F401A1FB8C
:1013400000010023FEF744FF21680222C1F301419E
:1013500002EB4101B0FBF1F010BD00002DE9F041BE
:1013600082B000286AD00446007843F60006C00721
:10137000C4F202060BD0B06800F00C00042840F064
:10138000A1803068800302D56068002856D020789C
:1013900080071AD5B06810F00C0F09D0B06800F0C3
:1013A0000C00082840F0A8807068400200F1A4807A
:1013B0003068800702D5E06801283FD13068216994
:1013C00020F0F80040EAC10030602078000739D4EE
:1013D000207840074ED4A5695DB3B06800F00C00DA
:1013E000082840F0BD80012D28D07068E16900F424
:1013F00080028A4222D1216A00F03F028A421DD136
:1014000047F6C071626A0140B1EB821F16D1A26A31
:101410000023CFF6FF7303EBC23200F440316FF3C9
:101420000F0291420AD1E16A00F07060B0EB016FE7
:1014300004D1002002B0BDE8F08100BF012002B05D
:10144000BDE8F0816069002840F20000C4F2472046
:1014500076D00121C0F8801EFFF7A6FD054600BF2B
:10146000706F8007B4D4FFF79FFD401B0228F7D9A7
:10147000DDE000BF306C10F080580AD100200190F0
:10148000306C40F080503064306C00F0805001903F
:10149000019847F20007C4F200073868C00541D43C
:1014A000386840F480703860FFF77EFD054600BF65
:1014B0003868C00536D4FFF777FD401B0228F7D9FE
:1014C000B5E000BFB06800F00C00082803D17068D8
:1014D00040023FF556AF6068B0F5803F07D0B0F5E9
:1014E000A02F40F08D80306840F48020306030685C
:1014F00040F4803030608DE0E068002852D0002059
:10150000C4F2472001210160FFF74EFD054600BFF0
:10151000306880073FF552AFFFF746FD401B0228B9
:10152000F6D984E0A068012805D005284ED1306F97
:1015300040F004003067306F40F0010030674FE04A
:101540000021C0F8801EFFF72FFD0546706F800751
:101550007FF53EAFFFF728FD401B0228F6D966E075
:101560000027C4F2472700203866FFF71DFD022D33
:1015700005460BD1306880015ED5FFF715FD401B95
:1015800002284FF00300F5D954E700BF306880010E
:101590007FF54FAFFFF708FD401B02284FF0030017
:1015A000F4D947E70020C4F2472000210160FFF78B
:1015B000FBFC0546306880077FF507AFFFF7F4FCBA
:1015C000401B02284FF00300F4D933E7316F0028A5
:1015D00021F001013167316F21F0040131674DD0F5
:1015E000FFF7E2FC054641F2883700BF306F800705
:1015F00056D4FFF7D9FC401BB842F7D917E000BF1B
:101600003168002821F480313160316821F4802173
:1016100031604FD0FFF7C8FC054600BF306880033B
:101620003FF5B5AEFFF7C0FC401B6428F6D9032098
:1016300002B0BDE8F08100BF04F11C052FCD0843C6
:101640000021CFF6FF7140EA821001EBC3316FF346
:101650000F0140EA05600843706001203866FFF71B
:10166000A3FC0446306880013FF5E3AEFFF79CFC25
:10167000001B02284FF00300F4D9DBE6FFF794FCCF
:10168000054641F2883700BF306F800708D5FFF765
:101690008BFC401BB8424FF00300F5D9CAE600BFEF
:1016A000B8F1000F7FF497AE306C20F080503064BA
:1016B00091E600BFFFF778FC054600BF3068800365
:1016C0007FF565AEFFF770FC401B64284FF0030008
:1016D000F4D9AFE64EF21000CEF20000016841F0FE
:1016E0000201016070470000411E0020B0EB116F45
:1016F0001CBF012070474EF21002CEF20002516072
:101700004EF62351CEF20001F0230B7007219060BA
:10171000116070474EF21000CEF20000016821F017
:10172000020101607047000010B590F83C20012ACA
:101730004FF002023ED080F83D200268D2F804E06B
:10174000D2F808C00C682EF07003234340F6FF3433
:10175000C4F20004A242536010DCB2F1804F1ED0EC
:1017600040F20043C4F200039A4218D040F600034E
:10177000C4F200039A4212D016E000BF40F60043C4
:10178000C4F200039A420AD044F20003C4F20103F7
:101790009A4204D00023C4F201039A4204D149685A
:1017A0002CF08003194391600121002280F83D1044
:1017B00080F83C20104610BD002804BF012070476F
:1017C00010B5044690F83D0028B9002084F83C008C
:1017D000204600F08FF8022084F83D00206840F297
:1017E000FF730268C4F2000340F2000C9842C4F296
:1017F000010C1DDD40F60001C4F20001884220D03A
:1018000060451ED040F60041C4F20001884218D065
:101810004FF6FF71C4F2000188421CDC984225DCBF
:10182000B0F1804F3AD040F20041C4F2000133E001
:10183000B0F1804F05D040F20041C4F2000188426F
:10184000E6D1A16822F070020A434FF6FF71C4F29C
:1018500000018842E2DD44F2FF31C4F20101884216
:1018600010DC60451AD044F2000113E040F600019C
:10187000C4F20001884211D040F60041C4F20001D8
:101880000AE000BF44F60001C4F20101884205D01D
:1018900044F20041C4F20101884203D1216922F4DB
:1018A00040720A43A36922F08001D4F804E0E268A0
:1018B000194360450160C262C0F828E002D1616945
:1018C000CCF8301001214161002084F8461084F8E2
:1018D0003E1084F83F1084F8401084F8411084F8DA
:1018E000421084F8431084F8441084F8451084F8BA
:1018F0003D1010BD81B0006844F20041C4F2010106
:10190000884201D001B070470020009043F64400A7
:10191000C4F20200016841F400310160006800F483
:1019200000300090009801B07047000090F83D1022
:1019300001291CBF01207047022180F83D1000687A
:1019400040F6FF32C168C4F20002904241F001014A
:10195000C1600FDCB0F1804F1DD040F20041C4F2F5
:101960000001884217D040F60001C4F2000188420D
:1019700011D017E040F60041C4F2000188420AD0BD
:1019800044F20001C4F20101884204D00021C4F2F3
:101990000101884206D1816801F00701062904BFD0
:1019A00000207047016841F001010160002070478C
:1019B00080B586B0016840F20040C4F20000814268
:1019C00002D006B080BD00BF002143F63002019175
:1019D000C4F20202136800F5003043F00203136002
:1019E000126802F002020192019A0222CDE903116B
:1019F00001A9CDE901220592FFF7EAF906B080BD01
:101A00002DE9F04390F83C30012B04BF0220BDE8E3
:101A1000F0834FEAB202032A3AD8DFE802F003412A
:101A20007DB700BF036800261A6AC4F2010622F0DF
:101A300001021A621D6A1A465C6852F818CFB34256
:101A40008E68D1F800E025F0020545EA06050CD1C4
:101A5000CE68D1E9057824F4407425F00C0526F011
:101A600004063C43354344EA08042CF0730747EA74
:101A70000E075C609F614F6809695F631D629F6923
:101A800047F008079F619F6927F004079F61ACE05A
:101A90000121002280F83C200846BDE8F08300BF09
:101AA000036800261A6AC4F2010622F010021A62C4
:101AB0001D6A1A46D3F804C052F8184FB3428E6814
:101AC000D1F800E025F0200545EA06150FD1CE68D3
:101AD000D1E905986FF0400707EA06162CF4406735
:101AE00025F0C00547EA8907354347EA880C24F406
:101AF000E64444EA0E27C3F804C09F614F680969B1
:101B00009F631D629F6947F400679F619F6927F487
:101B100080679F6168E000BF036800261A6AC4F20C
:101B2000010622F480721A621D6A1A46D3F804C0B4
:101B300052F81CEFB3428E680C6825F4007545EA34
:101B400006250FD1CE68D1E90598360240F2FF474D
:101B5000BE432CF4405725F4406547EA0917354346
:101B600047EA081C2EF073072743C3F804C0DF615F
:101B70004F680969DF631D62DF6947F00807DF61AD
:101B8000DF6927F00407DF612FE000BF036800274B
:101B90001A6AC4F2010722F480521A621A46D3F874
:101BA00020C05D6852F81C4FD1F800E08E68BB423F
:101BB00004D14F6925F4804545EA87152CF4005778
:101BC00047EA063724F4E64646EA0E265D60DE6103
:101BD0004E6809691E641F62DF6947F40067DF61B0
:101BE000DF6927F48067DF61090213681943116018
:101BF0000021002280F83C200846BDE8F083000068
:101C0000002804BF0120704710B5044690F83D003D
:101C100028B9002084F83C00204600F08FF802200C
:101C200084F83D00206840F2FF730268C4F20003AC
:101C300040F2000C9842C4F2010C1DDD40F6000198
:101C4000C4F20001884220D060451ED040F6004119
:101C5000C4F20001884218D04FF6FF71C4F20001AF
:101C600088421CDC984225DCB0F1804F3AD040F22B
:101C70000041C4F2000133E0B0F1804F05D040F2E2
:101C80000041C4F200018842E6D1A16822F070024E
:101C90000A434FF6FF71C4F200018842E2DD44F2CC
:101CA000FF31C4F20101884210DC60451AD044F2D1
:101CB000000113E040F60001C4F20001884211D097
:101CC00040F60041C4F200010AE000BF44F6000102
:101CD000C4F20101884205D044F20041C4F201017E
:101CE000884203D1216922F440720A43A36922F099
:101CF0008001D4F804E0E268194360450160C262E3
:101D0000C0F828E002D16169CCF8301001214161AE
:101D1000002084F8461084F83E1084F83F1084F8C0
:101D2000401084F8411084F8421084F8431084F87D
:101D3000441084F8451084F83D1010BD81B000684F
:101D400040F20041C4F20001884201D001B0704766
:101D50000020009043F64000C4F20200016841F008
:101D600002010160006800F002000090009801B0DC
:101D70007047000041B1082910D0042914BF00F1B8
:101D8000410200F13F020BE090F83E20012A1CBF07
:101D900001207047022280F83E2013E000F140024B
:101DA0001278012A1CBF012070470222082907D09F
:101DB000042914BF80F8412080F83F2002E000BFD2
:101DC00080F84020006801F01F010122036A8A4068
:101DD00023EA02010162036A4421C4F201011A43A9
:101DE000A1F144039842026216D040F6FF31C4F2DA
:101DF000000188421ADCB0F1804F28D040F2004147
:101E0000C4F20001884222D040F60001C4F2000171
:101E100088421CD022E000BF0A6842F400420A60F7
:101E200040F6FF31C4F200018842E4DD40F6004193
:101E3000C4F2000188420AD044F20001C4F2010158
:101E4000884204D00021C4F20101884206D1816891
:101E500001F00701062904BF00207047016841F026
:101E60000101016000207047002804BF0120704775
:101E700010B5044690F83D0028B9002084F83C00D5
:101E8000204600F021F8242084F83D002068C16835
:101E900021F40051C160204600F016FA2068016963
:101EA00021F490410161416921F02A014161C16839
:101EB00041F40051C16000202021206484F83D10CD
:101EC00084F83E1010BD000070B586B0044601686D
:101ED00041F20000C4F20100814201D006B070BDA1
:101EE000002643F630010196C4F202014A6900F56A
:101EF000704042F010024A614A6902F010020192F9
:101F0000019A01960A6842F001020A60096801F02C
:101F10000101019101994FF4C06101910221CDE9C4
:101F20000216032104910721059101A9FEF750FF34
:101F300040F2F80546F2B840C2F20005C4F20200D1
:101F40004FF0006140224FF4806385E84700284647
:101F5000C5E90436C5E90666C5E90866FEF7D4FD9D
:101F6000002818BFFEF712FA6563AC6306B070BDB7
:101F70002DE9F04381B0044690F83D0020280DD1B2
:101F80000F4600294FF0010000F0DD801646002AC0
:101F900000F0D98094F83C00012803D1022001B060
:101FA000BDE8F083012084F83C004FF000092120B7
:101FB0001D46C4F8409084F83D00FEF7F5FFA68466
:101FC000E684A1680646B1F5805F07D12069002844
:101FD0001CBF38464F46B846074601E04FF00008A0
:101FE00084F83C90E18C2068002900F08B8005F19A
:101FF00001090AE047B317F8011B4160E18C013980
:10200000E184E18C002900F07D8001680906F1D4AB
:10201000B9F1000F0AD0EDB1FEF7C6FF801BA84250
:1020200018D8206801680906F6D5E3E701680906B3
:10203000E0D4016809065CBF01685FEA0161D9D498
:1020400001680906F2D5D5E738F8021B00276FF3BF
:102050005F21D2E7206850E8030F216820F4D07098
:1020600041E80302BAB3206850E8030F216820F466
:10207000D07041E8030272B3206850E8030F216872
:1020800020F4D07041E803022AB3206850E8030F1F
:10209000216820F4D07041E80302002ADAD11AE066
:1020A000206850E8050F216820F0010041E8050292
:1020B000DAB1206850E8050F216820F0010041E8FE
:1020C000050292B1206850E8050F216820F0010058
:1020D00041E805024AB1206850E8050F216820F068
:1020E000010041E80502002ADAD1202084F83D00F1
:1020F00084F83E00002084F83C00032001B0BDE8D5
:10210000F08300BF0168490619D4FDB1691C0DD1E7
:102110000168490613D4016849065CBF01685FEA9B
:1021200041610CD401684906F2D508E0FEF73CFF96
:10213000801BA8420AD8206800684006F6D52020F7
:1021400084F83D00002001B0BDE8F083206850E82D
:10215000030F216820F4D07041E80302E2B3206845
:1021600050E8030F216820F4D07041E803029AB3CD
:10217000206850E8030F216820F4D07041E8030282
:1021800052B3206850E8030F216820F4D07041E872
:102190000302002ADAD11FE0206850E8050F216809
:1021A00020F0010041E80502002A9ED0206850E896
:1021B000050F216820F0010041E80502002A3FF4E4
:1021C00094AF206850E8050F216820F0010041E835
:1021D0000502002A3FF489AF206850E8050F216806
:1021E00020F0010041E80502002AD5D17DE700007A
:1021F000FEE70000FEE70000FEE700007047000079
:1022000070470000FEF7D6BEB0B592B0002443F68A
:102210004000CDE90A44CDE908440594CDE90344E2
:10222000CDE901440094C4F202000168022541F0A6
:1022300080510160006800F080500090009847F2E3
:1022400000000094C4F20000016841F440410160C4
:10225000006800F4404000900098012006904FF480
:10226000803007904FF480000D900C200E9060207D
:10227000CDE90F050420119006A80C95FFF76EF824
:1022800020B1EFF3108072B6FEE700BF0F20CDE95A
:1022900001054FF48050CDE9040401A80321039403
:1022A000FEF74EFF20B1EFF3108072B6FEE700BFDD
:1022B00012B0B0BD4EF68850CEF20000016841F475
:1022C000700101607047000010B504460068D4E951
:1022D00002C22369016921F440511143016162691D
:1022E00043EA0C01E3691143C268194349F20C63E4
:1022F0009A431143C1604169A26921F4407141F2DE
:102300000043114340F48062C4F201039A424161E8
:1023100002D1FEF7D9FF01E0FEF7C2FFE169636871
:102320001922B1F5004FA0FB02011FD15A00DB0FAB
:10233000FDF74EFF48F21F51C5F2EB11A0FB012340
:102340005A096FF0630302FB0300322303EBC00062
:10235000A0FB01014FF4F87000EA111000EB02102D
:10236000C1F3421108442168886010BD9A009B0F98
:10237000FDF72EFF48F21F51C5F2EB11A0FB012320
:102380005A096FF0630302FB0300322303EB0010D2
:10239000A0FB0101F02000EA511000EB0210C1F394
:1023A000431108442168886010BD0000FEE700006A
:1023B000CAB042F6805140F60004C0F600016846FB
:1023C00040F20112C4F20204FDF733FFFEF700FEF3
:1023D000FFF71AFF002543F6300645954895C4F2ED
:1023E000020630684FF4005140F00400306030685D
:1023F000002200F0040048904898489530684FF457
:10240000005740F080003060306800F08000489055
:1024100048984895306840F001003060306800F01E
:102420000100489048984895306840F002003060BC
:10243000306800F00200489048982046FEF7AEFD54
:10244000A4F5806840464FF4806100224FF4806B11
:10245000FEF7A4FD0DF5827A4FF0010920465146A2
:102460004197CDE942954495FEF7B2FC4FF48810B0
:10247000A4F50067CDE9420538465146CDF80491F0
:10248000FEF7A6FC022041904FF49010CDE94205E2
:1024900038465146FEF79CFC40465146CDE941B9CD
:1024A000CDE94355FEF794FC062000210022FEF7FB
:1024B000FBFD0620FEF7E8FD41953068002140F461
:1024C000800030603068002200F480004190419824
:1024D0003820FEF7E9FD3820FEF7D6FD4620002122
:1024E0000022FEF7E1FD4620FEF7CEFD40F2E8189F
:1024F000A4F57840C2F200084FF4E1310C2288E8DC
:1025000023004046C8E90355C8E90525C8F81C5012
:10251000FFF7AAFC20B1EFF3108072B6FEE700BF10
:1025200040F250000123A4F56841C2F20000C0F659
:10253000007344954FF4803280F8189080F8205052
:10254000C0E90A35C0F81C9080F8309080E8260079
:10255000C0E90355C0F81490FDF7D0FF20B1EFF3A8
:10256000108072B6FEE700BF072041900120CDE940
:10257000420040F25000C2F2000041A9FDF70CFFFA
:1025800020B1EFF3108072B6FEE700BF40F25810A2
:10259000A4F54441C2F2000000254FF6FF72C0E9E5
:1025A0000015C0E9025205618561FFF705F928B100
:1025B000EFF3108072B600BFFEE700BF40F2A0103C
:1025C000A4F50131C2F200006422CDE94855CDE9FD
:1025D0004655CDE9445580E82600C0E903258561CC
:1025E000FFF70EFB20B1EFF3108072B6FEE700BFDD
:1025F00040F2A010C2F2000048A9FFF795F828B1F8
:10260000EFF3108072B600BFFEE700BF602041907C
:102610000020CDE94200459040F2A010C2F2000037
:1026200041A90C22FFF7ECF920B1EFF3108072B64C
:10263000FEE700BF40F2A015C2F200052846FFF7F2
:10264000B7F92846FFF772F940F2F80040F211326C
:10265000C2F20000C0F600020021FEF707FB40F2C4
:10266000500640F2100742F6C44942F6A84AC2F2A8
:102670000006C2F20007C0F60009C0F6000A00BF5B
:1026800020464FF400510022FEF788FC3046FEF74A
:10269000BBF830464FF0FF31FEF738F83046FDF713
:1026A00029FF78803046FEF735F978886421484361
:1026B00040F2E521C2F20C51A0FB0101480A38703A
:1026C000C1F347204FF64041CFF6FD71605040F214
:1026D000A010C2F200000C21FFF74CFBD8F800005C
:1026E0006D46416900F1040B41F0800141612846CB
:1026F000FDF7B1FD034640F2F800C2F200002946A2
:102700005A46FEF7E9FA4FF47A70FEF735FB42F6C7
:102710003351C0F60001404624224FF0FF33796068
:10272000FFF726FC4FF47A70FEF726FB42F60E51B7
:10273000C0F60001404624224FF0FF337960FFF7D6
:1027400017FC4FF47A70FEF717FB42F6E941C0F62A
:102750000001404624224FF0FF337960FFF708FC68
:102760004FF47A70FEF708FB4046494624224FF0AA
:10277000FF33C7F80490FFF7FBFB4FF47A70FEF7C6
:10278000FBFAFEF7C7FF20464FF400510122FEF787
:1027900005FC00200121FEF7C3FCFEF79BFF40462D
:1027A00051461B224FF0FF33C7F804A0FFF7E0FBB0
:1027B00020464FF40051FEF7E9FB9620FEF7DCFAC5
:1027C00020464FF40051FEF7E1FB9620FEF7D4FAC5
:1027D00020464FF40051FEF7D9FB9620FEF7CCFAC5
:1027E00020464FF40051FEF7D1FB9620FEF7C4FAC5
:1027F00020464FF40051FEF7C9FB9620FEF7BCFAC5
:1028000020464FF40051FEF7C1FB9620FEF7B4FAC4
:1028100020464FF40051FEF7B9FB9620FEF7ACFAC4
:1028200020464FF40051FEF7B1FB9620FEF7A4FAC4
:1028300020464FF40051FEF7A9FB9620FEF79CFAC4
:1028400020464FF40051FEF7A1FB9620FEF794FAC4
:1028500020464FF40051FEF799FB9620FEF78CFAC4
:1028600020464FF40051FEF791FB9620FEF784FAC4
:1028700020464FF40051FEF789FB9620FEF77CFAC4
:1028800020464FF40051FEF781FB9620FEF774FAC4
:1028900020464FF40051FEF779FB9620FEF76CFAC4
:1028A00020464FF40051FEF771FB9620FEF764FAC4
:1028B00020464FF40051FEF769FB9620FEF75CFAC4
:1028C00020464FF40051FEF761FB9620FEF754FAC4
:1028D00020464FF40051FEF759FB9620FEF74CFAC4
:1028E00020464FF40051FEF751FB9620FEF744FAC4
:1028F000C6E600000FB4084B10B504A902AA03985D
:1029000000F01CF8044602A9002000F0B8F92046A7
:1029100010BC5DF814FB00007F2C000802E008C822
:10292000121F08C1002AFAD170477047002001E049
:1029300001C1121F002AFBD1704700002DE9FF4F93
:102940008BB088460546002606E025280BD0DDE939
:102950000D1290476D1C761C28780028F5D10FB019
:102960003046BDE8F08F0024A146A2460122AE49C0
:1029700000E0044315F8013F203B02FA03F008424F
:10298000F7D128782A2810D06FF02F022878A0F1EC
:102990003001092915D809EB890102EB410144F006
:1029A000020400EB01096D1CF0E758F8041B5FEA14
:1029B000010903D544F40054C9F1000944F00204AC
:1029C0006D1C28782E2817D115F8010F44F0040447
:1029D0002A280ED06FF02F022878A0F130010929A3
:1029E0000AD80AEB8A0102EB410100EB010A6D1CD7
:1029F000F2E758F804AB6D1C28786C280FD006DC81
:102A00004C2817D068280DD06A2814D104E0742807
:102A100010D07A280FD10DE044F400140AE044F4F9
:102A2000801401E044F440146978814202D104F535
:102A300080146D1C6D1C2878692865D006DC002880
:102A40008DD0632827D0642806D15DE06E2808D099
:102A500073282AD0752877D0DDE90D129047761CAF
:102A6000E0E0C4F30250022809D003280DD0D8F8C2
:102A7000001004280DD00E6008F10408D2E0D8F848
:102A80000010F217C1E90062F6E7D8F800100E80D6
:102A9000F2E70E70F0E718F8041B8DF80010002024
:102AA0008DF80100EB46012003E058F804BB4FF01D
:102AB000FF3061074FF0000701D40AE07F1C574543
:102AC0000DDA8742FADB1BF807100029F6D106E081
:102AD0007F1C8742FCDB1BF807100029F8D1DDE9D9
:102AE0000D23A9EB07008146214600F0B1F83044E0
:102AF000C61904E0DDE90D121BF8010B90477F1E9B
:102B0000F8D22146484688E058F8040BC4F3025135
:102B10004FF00A0B032900D100B2042900D140B2C2
:102B2000002802DA40422D2102E0210505D52B21A3
:102B30008DF82410012104E006E0E10710D02021E7
:102B4000F6E708AF089113E058F8040BC4F30251FC
:102B50004FF00A0B032900D180B2042900D1C0B282
:102B60000021EEE75946FDF77DFB303107F8011DE6
:102B70000028F7D1ADEB070000F1200B600702D56C
:102B800024F4803401E04FF0010ADA4502DDAAEBBB
:102B90000B0000E00020824600EB0B010898014486
:102BA000A9EB01000A90E00306D4DDE90D232146DC
:102BB0000A9800F04DF806444FF0000908E009A912
:102BC00011F80900DDE90D12904709F10109761CA1
:102BD00008998945F3DBE0030CD5DDE90D23214697
:102BE0000A9800F035F8064404E0DDE90D123020C3
:102BF0009047761CBAF10001AAF1010AF5DC05E064
:102C0000DDE90D1217F8010B9047761CBBF10001AE
:102C1000ABF1010BF4DC0A982146DDE90D2300F04D
:102C200005F806446D1C97E6092801002DE9F041DE
:102C3000044600251E461746880404D405E039469C
:102C40002020B0476D1C641EF9D52846BDE8F081F0
:102C50002DE9F041044600251E469046C80301D5E3
:102C6000302700E02027880404D505E04146384697
:102C7000B0476D1C641EF9D52846BDE8F0810A688E
:102C8000531C0B6010707047000000000000000033
:102C90000102030406070809000000000102030402
:102CA00000061016000610160A576F6B6520557047
:102CB0002066726F6D20536C656570204D6F646582
:102CC0000D0A0A00476F696E6720696E746F2053A2
:102CD0006C656570204D6F646520696E20312073CE
:102CE00065636F6E64730D0A00476F696E672069D4
:102CF0006E746F20536C656570204D6F646520693C
:102D00006E2032207365636F6E64730D0A00476F27
:102D1000696E6720696E746F20536C656570204D15
:102D20006F646520696E2033207365636F6E647312
:102D30000D0A00476F696E6720696E746F20536CCF
:102D4000656570204D6F646520696E203420736561
:102D5000636F6E64730D0A00476F696E6720696E5A
:102D6000746F20536C656570204D6F646520696ECB
:102D70002035207365636F6E64730D0A00000000D8
:102D800054686520717569636B2062726F776E207D
:102D9000666F78206A756D7073206F766572207427
:102DA0006865206C617A7920646F672E20546865AD
:102DB000206669766520626F78696E672077697A28
:102DC00061726473206A756D7020717569636B6CD4
:102DD000792E20486F7720717569636B6C79206458
:102DE000616674206A756D70696E67207A656272BB
:102DF0006173207665782E20517569636B207A6542
:102E0000706879727320626C6F772C20666C6578BD
:102E1000696E672064616674204A696D2E20537064
:102E200068796E78206F6620626C61636B207175C3
:102E30006172747A2C206A75646765206D792076DA
:102E40006F772E20486F772072617A6F72626163AC
:102E50006B206A756D70696E672066726F6773208C
:102E600063616E206C6576656C207369782070698B
:102E7000717565642067796D6E617374732E0D0AC8
:102E800000000000A82E0008000000201000000034
:102E90001C290008B82E00081000002020060000A1
:102EA0002C290008000000000100000010000000B4
:082EB0000024F4000000000002
:040000050800019955
:00000001FF
