:020000040800F2
:1000000010540020AD010008B9200008B1200008FC
:10001000B52000088D0300087922000800000000C8
:10002000000000000000000000000000C1200008E7
:100030001D04000800000000BD200008C5200008C5
:10004000C7010008C7010008C7010008C701000870
:10005000C7010008C701000821040008C701000803
:10006000C7010008C7010008C7010008C701000850
:10007000C7010008C7010008C7010008C701000840
:10008000C7010008C7010008810300080000000044
:10009000000000000000000000000000C701000890
:1000A000C7010008C701000889210008C70100082E
:1000B000C7010008C7010008C7010008C701000800
:1000C000C7010008C7010008C7010008C7010008F0
:1000D000C7010008C7010008C701000800000000B0
:1000E000C7010008C7010008C701000800000000A0
:1000F000000000000000000000000000C701000830
:1001000000000000C7010008C7010008C70100087F
:1001100000000000000000000000000000000000DF
:1001200091030008C7010008C7010008C7010008C3
:10013000C7010008000000000000000000000000EF
:10014000000000000000000000000000C7010008DF
:10015000C7010008C70100089D030008C701000887
:10016000C7010008C70100080000000000000000EF
:10017000000000000000000000000000000000007F
:1001800000000000C701000800000000000000009F
:10019000C7010008C7010008DFF80CD000F098F88C
:1001A000004800477D220008105400200648804780
:1001B00006480047FEE7FEE7FEE7FEE7FEE7FEE74C
:1001C000FEE7FEE7FEE7FEE775210008990100085B
:1001D0002DE9F05F0546002092469B46884606467C
:1001E000814640241BE0284641464746224600F00F
:1001F0005EF853465A46C01A914110D3114618462C
:10020000224600F045F82D1A67EB01084F462246BA
:100210000120002100F03CF817EB00094E41201EA0
:10022000A4F10104DFDC484631462A464346BDE8D6
:10023000F09F40EA01039B0703D009E008C9121FA1
:1002400008C0042AFAD203E011F8013B00F8013B90
:10025000521EF9D27047421C10F8011B0029FBD135
:10026000801A704730B50B46014600202022012439
:1002700009E021FA02F59D4205D303FA02F5491B74
:1002800004FA02F52844151EA2F10102F1DC30BD8A
:10029000202A04DB203A00FA02F100207047914046
:1002A000C2F1200320FA03F3194390407047202A3B
:1002B00004DB203A21FA02F00021704721FA02F310
:1002C000D040C2F120029140084319467047000017
:1002D000064C074D06E0E06840F0010394E8070093
:1002E00098471034AC42F6D3FFF75AFF982900081C
:1002F000B82900080146806B036C026C13F0500FA4
:1003000008D0D20648BF00F0DBB9806BC26C08464B
:10031000104700BF42F40071016401688A6812F05E
:10032000405F01D000F036B9027E002AFAD1CA6AD5
:1003300012F4700F02D08A685205F3D44A6822F092
:1003400020024A60016C21F480710164016CC904CF
:1003500048BF00F01FB9016C41F00101016400F0D9
:1003600019B90000806B40210164416C41F0040127
:10037000416400F0A5B90000806B00F09FB9000057
:1003800044F67860C2F2000000F0A0B9FEE7000079
:1003900044F6C060C2F2000000F000BC44F62070D9
:1003A000C2F2000000F0FABBF0B581B044F6C876A6
:1003B000C2F20006306840F210074169C2F200073D
:1003C00021F080014161D7E9012307F1140508A15B
:1003D000284602F085F8044682B2304629464FF09E
:1003E000FF33FC6001B0BDE8F04001F021BD00BF6B
:1003F0000A444D41204144432076616C7565203D9F
:10040000202564207C7C204954204144432076618F
:100410006C7565203D2025640D0A0A0070470000B8
:10042000012000F0FFBD0000EFF3108072B600BFA6
:10043000FEE700007047000070B581B00022009216
:1004400090F83C20012A03D10221084601B070BD7A
:100450000E6801220A2E80F83C2009D3B2B2520065
:10046000D0F800E012FA86F21E3A0EF10C0305E015
:10047000D0F800E006EB46020EF110034FF0070C37
:100480001D680CFA02F4A5431D608D681C6805FA0E
:1004900002F222431A604968062905D801EB81015E
:1004A00005390EF1340309E00C2901EB810187BF06
:1004B00041390EF12C0323390EF130031F221C6841
:1004C0008A4024EA020242F2043C1A60C4F2010C9F
:1004D000B2B21C6802FA01F1ACF5417221439645B3
:1004E000196005D0002180F83C10084601B070BDAD
:1004F0001221112EC1F2000118BF8E423AD1DCF850
:1005000000208E4222F48002CCF80020DCF800208B
:1005100042F40002CCF80020E4D140F20801C2F21B
:10052000000109684DF68362C4F21B32A1FB02127E
:10053000910C01EB81014900009100990029D1D073
:1005400000990139009100990029CBD00099013917
:10055000009100990029C5D00099013900910099B6
:100560000029BFD000990139009100990029E7D1F5
:10057000B8E700BF122EB5D1DCF8001021F400015D
:10058000CCF80010DCF8001041F48001CCF8001029
:10059000A8E7000070B540F2560E0020C2F2000E2F
:1005A00042F2107C002200BF0EEB00033EF8004038
:1005B0005988224411449A88DC8811441A892144BC
:1005C0005C8911449A892144DC8911441A8A2144A6
:1005D0005C8A11449A8A2144DC8A11441A8B214492
:1005E0005C8B11449A8B2144DC8B11441A8C21447E
:1005F0005C8C11449A8C2144DC8C11441A8D21446A
:100600005C8D11449A8D2144DC8D11441A8E214455
:10061000323060450A44C7D141F2597CCDF2B71C53
:10062000A2FB0C0140F2100E080BC2F2000E42F2C7
:100630006673CEF804000022C2F2000342F210708A
:10064000002400BF99189D5A4E882C448D8834444C
:10065000CE882C440D8934444E892C448D893444F1
:10066000CE892C440D8A34444E8A2C448D8A3444DD
:10067000CE8A2C440D8B34444E8B2C448D8B3444C9
:10068000CE8B2C440D8C34444E8C2C448D8C3444B5
:10069000CE8C2C440D8D34444E8D2C448D8D3444A1
:1006A000CE8D2C44098E3444323282420C44C9D15E
:1006B000A4FB0C01080BCEF8080070BD70470000C9
:1006C000704700000068C06C70470000B0B5044679
:1006D000006802684168920717D511F0200114D014
:1006E000216CC90603D4216C41F400712164816836
:1006F00011F0405F02D1217E002971D02046FFF722
:1007000049FF20686FF012010160026841685207DA
:1007100014D511F0800111D0216CC90603D4216CCD
:1007200041F400512164816811F4401F26D0204615
:10073000FFF780FE20686FF00C01016002684168DD
:10074000D20706D011F040011CBF01685FEAC171F9
:1007500036D10268416892060FD511F0806108BF5A
:10076000B0BD616C6FF0200541F00201616405606D
:100770002046FFF7A5FF20680560B0BD816B11F42E
:10078000401F02D081684905D1D441684905CED4C3
:10079000816811F0405FCAD1217E0029C7D141682C
:1007A00021F080014160206C20F480502064206C96
:1007B000C005BCD4206C40F001002064B7E700BF46
:1007C000206C40F480302064204600F0D3F820688C
:1007D0006FF001010160026841689206BDD4CCE768
:1007E000C16A11F4700F03D0816849053FF586AFE7
:1007F000416821F020014160206C20F48070206469
:10080000206CC0043FF57AAF206C40F001002064FA
:1008100074E70000002804BF0120704710B50446AB
:10082000006C00283ED0206CC00645D4206C41F2FC
:1008300002118843023042F204312064C4F2010103
:10084000086820F4403008600A6894E809101A43E8
:10085000D4F810E00A604168012321F480714160FE
:100860004168C0F6007341EA0E214160416821F001
:1008700040714160416841EA0C014160816821F4A6
:1008800000618160E168826811438160A16A8268C9
:10089000994222F070628260826813D122F0405146
:1008A00019E000BF204600F067F80020606484F87B
:1008B0003C00206CC006B9D50120002184F83C1012
:1008C00010BD00BF11438160816821F040518160FB
:1008D000E16A826811438160816821F002018160D0
:1008E0008168227E94F8203041EA420181604168AB
:1008F00083B141F40061416041684EF2000221F48D
:1009000060414160616ACFF6FF72436802EB41319A
:10091000194301E021F400614160C16A40F2000C1A
:1009200021F47001C162E2696169CFF6F07CC36AAB
:100930000CEB02521A43C262826822F40072826097
:1009400094F83020836843EA42228260826822F46D
:1009500080628260826842EA812181600020606456
:10096000216C012262F301012164002184F83C1012
:1009700010BD00007047000070B586B0044642F21A
:1009800000002168C4F20100002681420596049609
:1009900002D006B070BD00BF43F630010096C4F22D
:1009A00002014A6900F5604042F480724A614A6976
:1009B00002F480720092009A00960A6842F00102E6
:1009C0000A60096801F001010091009980210191FC
:1009D0000321CDE9021601A900F030FB44F6C06501
:1009E00046F21040C2F20005C4F202004FF48061EA
:1009F000C5E9000605F110004FF400624FF4005302
:100A00004FF4807C80E80E102846C5E90266C5E9EF
:100A1000086600F0A3F9002818BFFFF705FD1220B3
:100A200000210022A563AC6300F074FC122000F0EA
:100A300061FC06B070BD0000B0B582B00446002075
:100A4000019094F83C00012802D1022002B0B0BD10
:100A500094460A460120216884F83C008868C00753
:100A600029D188684DF6836540F00100886040F226
:100A70000800C2F200000068C4F21B35A0FB0505A7
:100A8000A80C00EB400001900198A0B1019801383A
:100A90000190019878B1019801380190019850B106
:100AA000019801380190019828B10198013801900E
:100AB00001980028EAD18868C00503D5886820F429
:100AC000807088608D68206CED0709D140F01000BF
:100AD0002064606C40F001006064002002B0B0BD92
:100AE00040F20175A84300F5807020644868400515
:100AF00004D5206C012565F30D302064256C0020A1
:100B0000ED044FF0000544BF656C25F006056564F3
:100B100084F83C00A06B40F2F52540F27933C0F632
:100B20000005C0F60003C0E90F5340F26533C0F67C
:100B30000003C3646FF022030B604B6842F20805A8
:100B400043F080634B608B68C4F2010543F480730B
:100B50008B604C31634600F0E9F9D5F8FC1220684F
:100B6000C9060FD0A5F108018842B6D1286810F057
:100B7000405FB2D1286840F080402860002002B079
:100B8000B0BD00BF816811F0405FA6D1816841F01F
:100B900080418160002002B0B0BD0000F0B581B09E
:100BA00004460020009040F20800C2F200000268F3
:100BB000D4E9166048F2B51337680821C1F64E3300
:100BC00081403942A2FB03250CD0226813685B07E1
:100BD00008D5136823F004031360B160616D41F020
:100BE0000101616501218140394208D022685269C2
:100BF000120604D5B160616D41F002016165042106
:100C00008140394208D022681268920704D5B16049
:100C1000616D41F00401616510218140394217D0B6
:100C200020680268120713D5B16002680168520398
:100C300008D4C90508D4016821F008010160216CBD
:100C400021B905E008033FD4216C09B1204688474B
:100C5000E16D202000FA01F23A4241D02068036899
:100C6000DB063DD5B26094F835300268052B1BD108
:100C700022F016020260426922F080024261226C78
:100C80000AB9A26C1AB1026822F0080202603F2081
:100C90008840B060012084F83500216D00200029D3
:100CA00084F8340052D157E00168520310D4C905CA
:100CB00012D4016821F010010160012084F8350090
:100CC000002084F8340007E0A16C0029BED1BFE702
:100CD000080301D4616C00E0E16B09B1204688474C
:100CE000606DC8B3606DC0072ED0052084F8350054
:100CF0002068A90A026822F001020260009A01320B
:100D00008A4200921AD80268D20717D0009A01329C
:100D10008A42009212D80268D2070FD0009A01329C
:100D20008A4200920AD80268D20707D0009A01329C
:100D30008A42009202D80268D207DFD1012084F8EB
:100D40003500002084F83400E16C29B1204601B060
:100D5000BDE8F040084700BF01B0F0BD2DE9F0410B
:100D6000044600F057FA002C4ED00546022084F8C5
:100D700035000020216884F83400086820F0010064
:100D800008600868C00708D000F044FA401B052836
:100D90006CD821680868C007F6D1086848F23F029D
:100DA000CFF21002D4E90135024004F10C0E9EE8A6
:100DB000C1511A432A4310433043384340EA0800E4
:100DC000626A40EA0C00042A40EA0E0320D1D4E90A
:100DD0000A5E206B4EEA0302104308604869BEF1C8
:100DE000000F20F0030040EA050040F0040C15D08D
:100DF000B8F5005F42D0B8F1000F51D1022D52D0AA
:100E0000012D47D055B94EE00120BDE8F08100BF6B
:100E10000B60486920F0070040EA020C6FF00F00F9
:100E20004AF6AB2250FA81F0CAF6AA22A0FB0223AE
:100E30001A0942F68C03C0F600039A5C40F2FF33B5
:100E40005F284FF03F00C1F814C021EA030100FA07
:100E500002F088BF0431C4E9161288600023012221
:100E60000020636584F83520BDE8F081032220234B
:100E70000320636584F83520BDE8F081032DCDD8CB
:100E8000012240230120DFE805F0030E030500BF27
:100E9000E7E700BFAEF1C070B0FA80F0400904E0AF
:100EA000032D04D3BAD1CEF300600028B6D00122BE
:100EB00040230120636584F83520BDE8F0810000FF
:100EC00090F83430012B04BF0220704790F8353081
:100ED000012B0BD1052922D8DFE801F0040E1216F0
:100EE0001A1E00BF00F13C0118E000BF01210022E2
:100EF00080F834200846704700F140010EE000BF42
:100F000000F144010AE000BF00F1480106E000BF23
:100F100000F14C0102E000BF00F150010A60002125
:100F2000002280F8342008467047000070B590F821
:100F300034C0BCF1010F46D04FF0010C80F834C032
:100F4000D0F858E090F835C0BCF1010F38D14FF01F
:100F5000020C80F835C04FF0000CC0F854C0D0F837
:100F600000C08468056CC06DDCF80060402C26F47D
:100F70008026CCF80060CCF804300B4604BF134642
:100F80000A463F2101FA00F0CCF80830CCF80C20DA
:100F9000CEF80800DCF8000040F01600CCF80000A5
:100FA0002DB1DCF8000040F00800CCF80000DCF8BF
:100FB000000040F00100CCF80000002070BD00BF30
:100FC000002180F83410022070BD0000B0B5044646
:100FD00000F020F9054640F20000C2F2000000785F
:100FE000611C18BF044400BF00F014F9401BA0426C
:100FF000FAD3B0BD012818BF704780B540F2004059
:10100000C4F202004FF4806100F0F6F840F21000E4
:10101000C2F20000017881F001010170BDE880405A
:101020007047000043F61441C4F201010A6802420D
:1010300014BF08607047FFF7DDBF00002DE9F04FD7
:1010400082B000F13E4241F2000502F1FF77C4F2A6
:10105000020507224FEAB726A84208BF0422042E41
:1010600038BF4FEAB7224FF0010E002400274FF09F
:101070000008009208E000BF023708F10108202FA5
:1010800004F1040400F0B4800E680EFA08F916EAC0
:10109000090FF1D0D1F804A00AF0030BABF101065F
:1010A000012E19D80322866802FA07FECA6826EACA
:1010B0000E06BA40324382604268CAF3001522EA43
:1010C000090205FA08F54FEA480C6FEA0E064FF0E0
:1010D000010E2A4342600BE00322BA40D643BBF123
:1010E000030FBC4604D1BC464FF0030B24E000BF05
:1010F000C2688D68324005FA0CF52A43BBF1020F35
:10110000C26019D16FF0030202EA5802024404F0EF
:101110001C030F25D2F820E005FA03FA0D692EEA28
:101120000A0E05FA03F343EA0E031362D1F804A092
:101130004FF0010E0AF0030B02680BFA0CF3324079
:101140001A431AF4403F026096D0002243F644034B
:101150000192C4F202031A6843F6004C42F4804242
:101160001A601A68C4F2010C02F480420192019ADA
:1011700028F003024FF6084A6244CFF6FF7A52F88D
:101180000A3004F00C060F25B540AB43009D05FA6C
:1011900006F6334342F80A30DCF800204B6842EA96
:1011A0000906DD0358BF22EA0906CCF80060DCF826
:1011B00004209D0342EA090658BF22EA0906CCF83A
:1011C0000460DCF80820DD0242EA090643F60C451B
:1011D00058BF22EA0906CCF80860C4F201052A6863
:1011E0009B0242EA090658BF22EA09062E6043E73D
:1011F00002B0BDE8F08F0000426902EA01039143AA
:1012000041EA034181617047002A08BF09048161F6
:101210007047000045F20C00C2F200000068704701
:1012200040F2000045F20C01C2F20000C2F20001DF
:1012300000780A68104408607047000080B543F6E3
:101240000040C4F20200016841F4007101600168CD
:1012500041F480610160016841F480710160032004
:1012600000F084F8002000F005F800F027F80020D6
:1012700080BD000070B540F20006C2F2000640F2E8
:1012800008013278C2F200014FF47A730968B3FBA7
:10129000F2F20446B1FBF2F1084600F041FB0F2CDC
:1012A0004FF0010508D838B94FF0FF302146002231
:1012B000002500F02FF87460284670BD82B0002031
:1012C00043F640010190C4F202014A6842F48042B0
:1012D0004A604A6802F480420192019A00900868CC
:1012E00040F080500860086800F08050009000983E
:1012F00002B07047002848BF704700F01F0101226C
:1013000002FA01F14EF200124009CEF2000242F858
:101310002010704710B54EF60C5CCEF2000CDCF8D5
:101320000030C3F3022E8EF00704042C28BF0424DF
:10133000BEF103034FF0FF3E0EFA04F438BF002362
:10134000A14399400EFA03F39A43114300F00F02B0
:10135000043A624409010C3200F16043B0F1FF3FEE
:10136000C8BF03F56442117010BD00004EF60C5169
:10137000CEF200010A684FF6FF031A4060F30A221A
:1013800042F0806040F0FD70086070472DE9F04148
:10139000002800F08B8043F60808C4F202080446D7
:1013A000D8F8F8030D4600F00700884207D288F805
:1013B000F853D8F8F80300F00700A84276D1206867
:1013C000810717D5410705D5D8F8001041F4E05141
:1013D000C8F80010010705D5D8F8001041F46041A5
:1013E000C8F80010D8F80010A26821F0F0011143ED
:1013F000C8F80010C0073FD1D8F8F80300F0070084
:10140000A84207D988F8F853D8F8F80300F0070085
:10141000A8424BD12068410707D5D8F80010E268F0
:1014200021F4E0511143C8F80010000708D5D8F89E
:101430000000216920F4604040EAC100C8F80000C3
:1014400000F07CF8D8F8001042F67402C1F30311E2
:10145000C0F60002515C40F2080220FA01F140F2AD
:101460000400C2F200000068C2F200021160FFF73F
:1014700001FF0020BDE8F0816068811E022907D2CB
:1014800058F8081C89015CBF0120BDE8F08111E01B
:10149000012807D158F8081C89035CBF0120BDE86A
:1014A000F08107E058F8081C890703D40120BDE843
:1014B000F08100BFD8F8001021F003010843C8F8FC
:1014C0000000FFF7A7FE064641F28837D8F8000073
:1014D000616800F00C00B0EB810F8DD0FFF79AFE31
:1014E000801BB842F2D90320BDE8F08140F2080029
:1014F00043F60801C2F20000C4F202010068096864
:1015000042F68402C1F38221C0F60002515CC84059
:101510007047000040F2080043F60801C2F20000E4
:10152000C4F202010068096842F68402C1F3423144
:10153000C0F60002515CC8407047000010B543F689
:101540000404C4F20204606800F00C0008280BD008
:10155000042819BF42F20040C0F2F40047F64000F0
:10156000C0F27D1010BD00BF2068216823684902C9
:1015700047F64001C0F27D1100F03F02C3F388102E
:101580005CBF42F20041C0F2F401A1FB0001002364
:10159000FEF71EFE21680222C1F3014102EB410168
:1015A000B0FBF1F010BD00002DE9F04182B0002841
:1015B0006AD00446007843F60006C007C4F202066B
:1015C0000BD0B06800F00C00042840F0A180306817
:1015D000800302D56068002856D0207880071AD58D
:1015E000B06810F00C0F09D0B06800F00C000828AB
:1015F00040F0A8807068400200F1A4803068800745
:1016000002D5E06801283FD13068216920F0F80058
:1016100040EAC10030602078000739D420784007C4
:101620004ED4A5695DB3B06800F00C00082840F006
:10163000BD80012D28D07068E16900F480028A42E3
:1016400022D1216A00F03F028A421DD147F6C071C3
:10165000626A0140B1EB821F16D1A26A0023CFF665
:10166000FF7303EBC23200F440316FF30F0291427B
:101670000AD1E16A00F07060B0EB016F04D1002084
:1016800002B0BDE8F08100BF012002B0BDE8F081EA
:101690006069002840F20000C4F2472076D00121A2
:1016A000C0F8801EFFF7B6FD054600BF706F8007CB
:1016B000B4D4FFF7AFFD401B0228F7D9DDE000BF2F
:1016C000306C10F080580AD100200190306C40F04E
:1016D00080503064306C00F080500190019847F2E7
:1016E0000007C4F200073868C00541D4386840F4E8
:1016F00080703860FFF78EFD054600BF3868C00572
:1017000036D4FFF787FD401B0228F7D9B5E000BFAC
:10171000B06800F00C00082803D1706840023FF563
:1017200056AF6068B0F5803F07D0B0F5A02F40F00D
:101730008D80306840F480203060306840F4803024
:1017400030608DE0E068002852D00020C4F24720CD
:1017500001210160FFF75EFD054600BF306880078C
:101760003FF552AFFFF756FD401B0228F6D984E043
:10177000A068012805D005284ED1306F40F0040044
:101780003067306F40F0010030674FE00021C0F853
:10179000801EFFF73FFD0546706F80077FF53EAF67
:1017A000FFF738FD401B0228F6D966E00027C4F297
:1017B000472700203866FFF72DFD022D05460BD187
:1017C000306880015ED5FFF725FD401B02284FF0F1
:1017D0000300F5D954E700BF306880017FF54FAFB3
:1017E000FFF718FD401B02284FF00300F4D947E72C
:1017F0000020C4F2472000210160FFF70BFD0546E1
:10180000306880077FF507AFFFF704FD401B022813
:101810004FF00300F4D933E7316F002821F00101C4
:101820003167316F21F0040131674DD0FFF7F2FCD1
:10183000054641F2883700BF306F800756D4FFF766
:10184000E9FC401BB842F7D917E000BF3168002817
:1018500021F480313160316821F4802131604FD032
:10186000FFF7D8FC054600BF306880033FF5B5AEF2
:10187000FFF7D0FC401B6428F6D9032002B0BDE876
:10188000F08100BF04F11C052FCD08430021CFF6E5
:10189000FF7140EA821001EBC3316FF30F0140EAA0
:1018A00005600843706001203866FFF7B3FC04460A
:1018B000306880013FF5E3AEFFF7ACFC001B022867
:1018C0004FF00300F4D9DBE6FFF7A4FC054641F234
:1018D000883700BF306F800708D5FFF79BFC401B9F
:1018E000B8424FF00300F5D9CAE600BFB8F1000FC7
:1018F0007FF497AE306C20F08050306491E600BFEA
:10190000FFF788FC054600BF306880037FF565AEB1
:10191000FFF780FC401B64284FF00300F4D9AFE6CA
:10192000411E0020B0EB116F1CBF012070474EF22A
:101930001002CEF2000251604EF62351CEF20001A9
:10194000F0230B7007219060116070477047000012
:1019500070470000002804BF0120704710B50446FE
:1019600090F83D0028B9002084F83C00204600F0A3
:101970008FF8022084F83D00206840F2FF7302686F
:10198000C4F2000340F2000C9842C4F2010C1DDDC9
:1019900040F60001C4F20001884220D060451ED00C
:1019A00040F60041C4F20001884218D04FF6FF71A2
:1019B000C4F2000188421CDC984225DCB0F1804F63
:1019C0003AD040F20041C4F2000133E0B0F1804F60
:1019D00005D040F20041C4F200018842E6D1A1687E
:1019E00022F070020A434FF6FF71C4F200018842F0
:1019F000E2DD44F2FF31C4F20101884210DC6045AF
:101A00001AD044F2000113E040F60001C4F20001D4
:101A1000884211D040F60041C4F200010AE000BF44
:101A200044F60001C4F20101884205D044F20041AD
:101A3000C4F20101884203D1216922F440720A43B1
:101A4000A36922F08001D4F804E0E26819436045FC
:101A50000160C262C0F828E002D16169CCF83010A0
:101A600001214161002084F8461084F83E1084F87A
:101A70003F1084F8401084F8411084F8421084F834
:101A8000431084F8441084F8451084F83D1010BDCC
:101A900080B582B0006844F60001C4F201018842BA
:101AA0001CBF02B080BD0020019043F64400C4F288
:101AB00002000168002241F48021016000680021D9
:101AC00000F48020019001981A20FFF723FC1A20CF
:101AD00002B0BDE88040FFF70DBC000090F83D105B
:101AE00001291CBF01207047022180F83D100068C9
:101AF00040F6FF32C168C4F20002904241F0010199
:101B0000C1600FDCB0F1804F1DD040F20041C4F243
:101B10000001884217D040F60001C4F2000188425B
:101B200011D017E040F60041C4F2000188420AD00B
:101B300044F20001C4F20101884204D00021C4F241
:101B40000101884206D1816801F00701062904BF1E
:101B500000207047016841F00101016000207047DA
:101B60007047000010B5016804460869800744BF4B
:101B7000C8685FEA807039D40869400744BFC86804
:101B80005FEA40703ED40869000744BFC8685FEA56
:101B9000007045D40869C00644BFC8685FEAC060E9
:101BA0004AD40869C0071CBFC8685FEAC07051D139
:101BB0000869000644BFC8685FEA006052D408693B
:101BC000400644BFC8685FEA406053D40869800695
:101BD00046BFC8685FEA806010BD6FF020022046F3
:101BE0000A61BDE81040FFF7B3BE00BF6FF002000E
:101BF0000861012020778869800743D02046FFF7DD
:101C0000AFFF45E06FF0040008610220207788698B
:101C100010F4407F40D02046FFF7A2FF42E000BF13
:101C20006FF00800086104202077C86980073DD064
:101C30002046FFF795FF3FE06FF010000861082095
:101C40002077C86910F4407F3AD02046FFF788FF1C
:101C50003CE000BF6FF001000861204600F03EF854
:101C60002168A5E76FF0800008612046FFF76EFE4F
:101C70002168A4E76FF040000861204600F052F8A8
:101C80002168A3E7204600F025F8204600F024F85C
:101C90002168002020776FE7204600F01BF82046DF
:101CA00000F01AF82168002020776CE7204600F049
:101CB00011F8204600F010F821680020207769E72D
:101CC000204600F007F8204600F006F821680020C2
:101CD000207766E7704700007047000010B544F6B3
:101CE0008071C2F2000188421BD140F21004C2F29E
:101CF00000042078002808BF10BD44F67860C2F2C6
:101D00000000FEF7DFFC216942F26672C2F20002B7
:101D100022F81100481C41F287329142C8BF0020CE
:101D2000206110BD70470000002804BF01207047EB
:101D300010B5044690F83D0028B9002084F83C0016
:101D4000204600F021F8242084F83D002068C16876
:101D500021F40051C160204600F01CFA206801699E
:101D600021F490410161416921F02A014161C1687A
:101D700041F40051C16000202021206484F83D100E
:101D800084F83E1010BD000070B586B004460168AE
:101D900041F20000C4F20100814201D006B070BDE2
:101DA000002643F630010196C4F202014A6900F5AB
:101DB000704042F010024A614A6902F0100201923A
:101DC000019A01960A6842F001020A60096801F06E
:101DD0000101019101994FF4C06101910221CDE906
:101DE0000216032104910721059101A9FFF726F9A5
:101DF00044F6207546F2B840C2F20005C4F2020073
:101E00004FF0006140224FF4806385E84700284688
:101E1000C5E90436C5E90666C5E90866FEF79EFF12
:101E2000002818BFFEF700FB6563AC6306B070BD09
:101E30002DE9F04381B0044690F83D0020280DD1F3
:101E40000F4600294FF0010000F0DD801646002A01
:101E500000F0D98094F83C00012803D1022001B0A1
:101E6000BDE8F083012084F83C004FF000092120F8
:101E70001D46C4F8409084F83D00FFF7CBF9A684D6
:101E8000E684A1680646B1F5805F07D12069002885
:101E90001CBF38464F46B846074601E04FF00008E1
:101EA00084F83C90E18C2068002900F08B8005F1DB
:101EB00001090AE047B317F8011B4160E18C0139C1
:101EC000E184E18C002900F07D8001680906F1D4ED
:101ED000B9F1000F0AD0EDB1FFF79CF9801BA842C1
:101EE00018D8206801680906F6D5E3E701680906F5
:101EF000E0D4016809065CBF01685FEA0161D9D4DA
:101F000001680906F2D5D5E738F8021B00276FF300
:101F10005F21D2E7206850E8030F216820F4D070D9
:101F200041E80302BAB3206850E8030F216820F4A7
:101F3000D07041E8030272B3206850E8030F2168B3
:101F400020F4D07041E803022AB3206850E8030F60
:101F5000216820F4D07041E80302002ADAD11AE0A7
:101F6000206850E8050F216820F0010041E80502D3
:101F7000DAB1206850E8050F216820F0010041E83F
:101F8000050292B1206850E8050F216820F0010099
:101F900041E805024AB1206850E8050F216820F0A9
:101FA000010041E80502002ADAD1202084F83D0032
:101FB00084F83E00002084F83C00032001B0BDE816
:101FC000F08300BF0168490619D4FDB1691C0DD129
:101FD0000168490613D4016849065CBF01685FEADD
:101FE00041610CD401684906F2D508E0FFF712F907
:101FF000801BA8420AD8206800684006F6D5202039
:1020000084F83D00002001B0BDE8F083206850E86E
:10201000030F216820F4D07041E80302E2B3206886
:1020200050E8030F216820F4D07041E803029AB30E
:10203000206850E8030F216820F4D07041E80302C3
:1020400052B3206850E8030F216820F4D07041E8B3
:102050000302002ADAD11FE0206850E8050F21684A
:1020600020F0010041E80502002A9ED0206850E8D7
:10207000050F216820F0010041E80502002A3FF425
:1020800094AF206850E8050F216820F0010041E876
:102090000502002A3FF489AF206850E8050F216847
:1020A00020F0010041E80502002AD5D17DE70000BB
:1020B000FEE70000FEE70000FEE7000070470000BA
:1020C00070470000FFF7ACB8B0B592B0002443F6FB
:1020D0004000CDE90A44CDE908440594CDE9034424
:1020E000CDE901440094C4F202000168022541F0E8
:1020F00080510160006800F080500090009847F225
:1021000000000094C4F20000016841F44041016005
:10211000006800F4404000900098012006904FF4C1
:10212000803007904FF480000D900C200E906020BE
:10213000CDE90F050420119006A80C95FFF734FA9D
:1021400020B1EFF3108072B6FEE700BF0F20CDE99B
:1021500001054FF48050CDE9040401A80321039444
:10216000FFF714F920B1EFF3108072B6FEE700BF5D
:1021700012B0B0BD4EF68850CEF20000016841F4B6
:10218000700101607047000044F68070C2F20000E8
:10219000FFF7E8BC10B504460068D4E902C2236921
:1021A000016921F4405111430161626943EA0C0164
:1021B000E3691143C268194349F20C639A4311431E
:1021C000C1604169A26921F4407141F200431143A9
:1021D00040F48062C4F201039A42416102D1FFF7E8
:1021E00099F901E0FFF782F9E16963681922B1F515
:1021F000004FA0FB02011FD15A00DB0FFDF7E8FFE3
:1022000048F21F51C5F2EB11A0FB01235A096FF0F0
:10221000630302FB0300322303EBC000A0FB0101B8
:102220004FF4F87000EA111000EB0210C1F34211F4
:1022300008442168886010BD9A009B0FFDF7C8FF15
:1022400048F21F51C5F2EB11A0FB01235A096FF0B0
:10225000630302FB0300322303EB0010A0FB010128
:10226000F02000EA511000EB0210C1F343110844C2
:102270002168886010BD0000FEE70000C8B042F68B
:10228000940140F60008C0F6000101A840F20112D6
:10229000C4F20208FDF7CDFFFEF7D0FFFFF714FFF1
:1022A000002443F6300747944294C4F2020738688A
:1022B0004FF4005140F0040038603868002200F00C
:1022C000040042904298429438684FF4005640F01F
:1022D00080003860386800F0800042904298429454
:1022E000386840F001003860386800F00100429022
:1022F00042984294386840F002003860386800F034
:102300000200429042984046FEF77EFFA8F58065A5
:10231000284640F20241002240F2024AFEF774FFD2
:10232000439643AE4FF0010940463146CDE944940F
:102330004694FEF783FE4FF48810CDE94404A8F5D7
:1023400000603146CDF80C91FEF778FE2846314604
:10235000CDE943A9CDE94544FEF770FE06200021F2
:102360000022FEF7D7FF0620FEF7C4FF439438682B
:10237000002140F4800038603868002200F48000BA
:10238000439043983820FEF7C5FF3820FEF7B2FF90
:10239000462000210022FEF7BDFF4620FEF7AAFFDF
:1023A00044F6C875A8F57840C2F200054FF4E13153
:1023B0000C2285E813002846C5E90344C5E9052435
:1023C000EC61FFF7B1FC28B1EFF3108072B600BFEB
:1023D000FEE700BF44F678600123A8F56841C2F229
:1023E0000000C0F6007346944FF4803280F81890D5
:1023F00080F82040C0E90A34C0F81C9080F8309082
:1024000080E81600C0E90344C0F81490FEF702FA11
:1024100020B1EFF3108072B6FEE700BF07204390B3
:102420000120449044F678600024C2F2000043A9E1
:102430004594FEF701F828B1EFF3108072B600BFA3
:10244000FEE700BF44F68070A8F54041C2F20000EC
:102450004FF6FF72C0E90014C0E9024204618461D2
:10246000FFF778FA20B1EFF3108072B6FEE700BFF5
:1024700044F6786040F25601C2F20000C2F2000158
:1024800041F28832FEF7D8FA44F62076C2F200060E
:1024900040F2A932C0F6000230460021FEF710FDDE
:1024A00044F68070C2F20000FFF718FB01AF00BFD6
:1024B00040464FF40051FEF79FFE28684169041D15
:1024C00041F0800141613846FDF7C5FE03463046C4
:1024D00039462246FEF72AFDFA20FEF777FDE7E7A8
:1024E0000FB4084B10B504A902AA039800F01CF819
:1024F000044602A9002000F0B8F9204610BC5DF89F
:1025000014FB00006B28000802E008C8121F08C175
:10251000002AFAD170477047002001E001C1121F64
:10252000002AFBD1704700002DE9FF4F8BB0884691
:102530000546002606E025280BD0DDE90D12904760
:102540006D1C761C28780028F5D10FB03046BDE808
:10255000F08F0024A146A2460122AE4900E00443C8
:1025600015F8013F203B02FA03F00842F7D1287822
:102570002A2810D06FF02F022878A0F13001092905
:1025800015D809EB890102EB410144F0020400EB8C
:1025900001096D1CF0E758F8041B5FEA010903D537
:1025A00044F40054C9F1000944F002046D1C287879
:1025B0002E2817D115F8010F44F004042A280ED054
:1025C0006FF02F022878A0F1300109290AD80AEB10
:1025D0008A0102EB410100EB010A6D1CF2E758F899
:1025E00004AB6D1C28786C280FD006DC4C2817D063
:1025F00068280DD06A2814D104E0742810D07A28F5
:102600000FD10DE044F400140AE044F4801401E01A
:1026100044F440146978814202D104F580146D1CA1
:102620006D1C2878692865D006DC00288DD06328C9
:1026300027D0642806D15DE06E2808D073282AD000
:10264000752877D0DDE90D129047761CE0E0C4F3E1
:102650000250022809D003280DD0D8F80010042811
:102660000DD00E6008F10408D2E0D8F80010F2177F
:10267000C1E90062F6E7D8F800100E80F2E70E70AC
:10268000F0E718F8041B8DF8001000208DF8010009
:10269000EB46012003E058F804BB4FF0FF30610720
:1026A0004FF0000701D40AE07F1C57450DDA87423E
:1026B000FADB1BF807100029F6D106E07F1C8742E1
:1026C000FCDB1BF807100029F8D1DDE90D23A9EB8D
:1026D00007008146214600F0B1F83044C61904E0F5
:1026E000DDE90D121BF8010B90477F1EF8D2214641
:1026F000484688E058F8040BC4F302514FF00A0B27
:10270000032900D100B2042900D140B2002802DA26
:1027100040422D2102E0210505D52B218DF8241002
:10272000012104E006E0E10710D02021F6E708AF20
:10273000089113E058F8040BC4F302514FF00A0B50
:10274000032900D180B2042900D1C0B20021EEE7F4
:102750005946FDF787FD303107F8011D0028F7D1F4
:10276000ADEB070000F1200B600702D524F48034A4
:1027700001E04FF0010ADA4502DDAAEB0B0000E0B0
:102780000020824600EB0B0108980144A9EB0100F0
:102790000A90E00306D4DDE90D2321460A9800F0F3
:1027A0004DF806444FF0000908E009A911F80900A6
:1027B000DDE90D12904709F10109761C0899894558
:1027C000F3DBE0030CD5DDE90D2321460A9800F088
:1027D00035F8064404E0DDE90D1230209047761C00
:1027E000BAF10001AAF1010AF5DC05E0DDE90D12FC
:1027F00017F8010B9047761CBBF10001ABF1010B00
:10280000F4DC0A982146DDE90D2300F005F80644C2
:102810006D1C97E6092801002DE9F04104460025CA
:102820001E461746880404D405E039462020B047E8
:102830006D1C641EF9D52846BDE8F0812DE9F041F4
:10284000044600251E469046C80301D5302700E007
:102850002027880404D505E041463846B0476D1C62
:10286000641EF9D52846BDE8F0810A68531C0B6048
:102870001070704700000000000000000102030417
:1028800006070809000000000102030400061016F4
:102890000006101654686520717569636B206272BA
:1028A0006F776E20666F78206A756D7073206F7613
:1028B000657220746865206C617A7920646F672E78
:1028C00020546865206669766520626F78696E6756
:1028D0002077697A61726473206A756D70207175F2
:1028E00069636B6C792E20486F7720717569636B13
:1028F0006C792064616674206A756D70696E6720FA
:102900007A6562726173207665782E2051756963ED
:102910006B207A65706879727320626C6F772C20F7
:10292000666C6578696E672064616674204A696DBB
:102930002E20537068796E78206F6620626C616318
:102940006B2071756172747A2C206A7564676520DA
:102950006D7920766F772E20486F772072617A6FBD
:10296000726261636B206A756D70696E6720667252
:102970006F67732063616E206C6576656C20736988
:1029800078207069717565642067796D6E61737404
:10299000732E0D0A00000000B82900080000002076
:1029A0001000000008250008C829000810000020B9
:1029B000005400001825000801000000100000006D
:0829C0000024F40000000000F7
:040000050800019955
:00000001FF
